{
  "_format": "hh-sol-artifact-1",
  "contractName": "IoTDataStorage",
  "sourceName": "contracts/IoTDataStorage.sol",
  "abi": [
    {
      "anonymous": false,
      "inputs": [
        {
          "indexed": false,
          "internalType": "string",
          "name": "sensorId",
          "type": "string"
        },
        {
          "indexed": false,
          "internalType": "string",
          "name": "dataType",
          "type": "string"
        },
        {
          "indexed": false,
          "internalType": "int256",
          "name": "value",
          "type": "int256"
        },
        {
          "indexed": false,
          "internalType": "uint256",
          "name": "timestamp",
          "type": "uint256"
        }
      ],
      "name": "DataStored",
      "type": "event"
    },
    {
      "inputs": [
        {
          "internalType": "uint256",
          "name": "index",
          "type": "uint256"
        }
      ],
      "name": "getRecord",
      "outputs": [
        {
          "internalType": "string",
          "name": "",
          "type": "string"
        },
        {
          "internalType": "string",
          "name": "",
          "type": "string"
        },
        {
          "internalType": "int256",
          "name": "",
          "type": "int256"
        },
        {
          "internalType": "uint256",
          "name": "",
          "type": "uint256"
        }
      ],
      "stateMutability": "view",
      "type": "function"
    },
    {
      "inputs": [],
      "name": "getTotalRecords",
      "outputs": [
        {
          "internalType": "uint256",
          "name": "",
          "type": "uint256"
        }
      ],
      "stateMutability": "view",
      "type": "function"
    },
    {
      "inputs": [
        {
          "internalType": "uint256",
          "name": "",
          "type": "uint256"
        }
      ],
      "name": "records",
      "outputs": [
        {
          "internalType": "string",
          "name": "sensorId",
          "type": "string"
        },
        {
          "internalType": "string",
          "name": "dataType",
          "type": "string"
        },
        {
          "internalType": "int256",
          "name": "value",
          "type": "int256"
        },
        {
          "internalType": "uint256",
          "name": "timestamp",
          "type": "uint256"
        }
      ],
      "stateMutability": "view",
      "type": "function"
    },
    {
      "inputs": [
        {
          "internalType": "string",
          "name": "sensorId",
          "type": "string"
        },
        {
          "internalType": "string",
          "name": "dataType",
          "type": "string"
        },
        {
          "internalType": "int256",
          "name": "value",
          "type": "int256"
        }
      ],
      "name": "storeData",
      "outputs": [],
      "stateMutability": "nonpayable",
      "type": "function"
    }
  ],
  "bytecode": "0x6080604052348015600f57600080fd5b50610d948061001f6000396000f3fe608060405234801561001057600080fd5b506004361061004c5760003560e01c806303e9e609146100515780630aeacb5e1461008457806334461067146100a25780637d9013fe146100d5575b600080fd5b61006b600480360381019061006691906105ce565b6100f1565b60405161007b94939291906106b3565b60405180910390f35b61008c6102ca565b6040516100999190610706565b60405180910390f35b6100bc60048036038101906100b791906105ce565b6102d6565b6040516100cc94939291906106b3565b60405180910390f35b6100ef60048036038101906100ea9190610882565b610426565b005b606080600080600080549050851061013e576040517f08c379a000000000000000000000000000000000000000000000000000000000815260040161013590610959565b60405180910390fd5b600080868154811061015357610152610979565b5b906000526020600020906004020160405180608001604052908160008201805461017c906109d7565b80601f01602080910402602001604051908101604052809291908181526020018280546101a8906109d7565b80156101f55780601f106101ca576101008083540402835291602001916101f5565b820191906000526020600020905b8154815290600101906020018083116101d857829003601f168201915b5050505050815260200160018201805461020e906109d7565b80601f016020809104026020016040519081016040528092919081815260200182805461023a906109d7565b80156102875780601f1061025c57610100808354040283529160200191610287565b820191906000526020600020905b81548152906001019060200180831161026a57829003601f168201915b5050505050815260200160028201548152602001600382015481525050905080600001518160200151826040015183606001519450945094509450509193509193565b60008080549050905090565b600081815481106102e657600080fd5b9060005260206000209060040201600091509050806000018054610309906109d7565b80601f0160208091040260200160405190810160405280929190818152602001828054610335906109d7565b80156103825780601f1061035757610100808354040283529160200191610382565b820191906000526020600020905b81548152906001019060200180831161036557829003601f168201915b505050505090806001018054610397906109d7565b80601f01602080910402602001604051908101604052809291908181526020018280546103c3906109d7565b80156104105780601f106103e557610100808354040283529160200191610410565b820191906000526020600020905b8154815290600101906020018083116103f357829003601f168201915b5050505050908060020154908060030154905084565b600083511161046a576040517f08c379a000000000000000000000000000000000000000000000000000000000815260040161046190610a54565b60405180910390fd5b60008251116104ae576040517f08c379a00000000000000000000000000000000000000000000000000000000081526004016104a590610ac0565b60405180910390fd5b60004290506000604051806080016040528086815260200185815260200184815260200183815250908060018154018082558091505060019003906000526020600020906004020160009091909190915060008201518160000190816105149190610c8c565b50602082015181600101908161052a9190610c8c565b50604082015181600201556060820151816003015550507f656f4418f91c5ecdc2bd58bf613d6fb0b4e5802f30cacf8483355d5808b03a0e8484848460405161057694939291906106b3565b60405180910390a150505050565b6000604051905090565b600080fd5b600080fd5b6000819050919050565b6105ab81610598565b81146105b657600080fd5b50565b6000813590506105c8816105a2565b92915050565b6000602082840312156105e4576105e361058e565b5b60006105f2848285016105b9565b91505092915050565b600081519050919050565b600082825260208201905092915050565b60005b8381101561063557808201518184015260208101905061061a565b60008484015250505050565b6000601f19601f8301169050919050565b600061065d826105fb565b6106678185610606565b9350610677818560208601610617565b61068081610641565b840191505092915050565b6000819050919050565b61069e8161068b565b82525050565b6106ad81610598565b82525050565b600060808201905081810360008301526106cd8187610652565b905081810360208301526106e18186610652565b90506106f06040830185610695565b6106fd60608301846106a4565b95945050505050565b600060208201905061071b60008301846106a4565b92915050565b600080fd5b600080fd5b7f4e487b7100000000000000000000000000000000000000000000000000000000600052604160045260246000fd5b61076382610641565b810181811067ffffffffffffffff821117156107825761078161072b565b5b80604052505050565b6000610795610584565b90506107a1828261075a565b919050565b600067ffffffffffffffff8211156107c1576107c061072b565b5b6107ca82610641565b9050602081019050919050565b82818337600083830152505050565b60006107f96107f4846107a6565b61078b565b90508281526020810184848401111561081557610814610726565b5b6108208482856107d7565b509392505050565b600082601f83011261083d5761083c610721565b5b813561084d8482602086016107e6565b91505092915050565b61085f8161068b565b811461086a57600080fd5b50565b60008135905061087c81610856565b92915050565b60008060006060848603121561089b5761089a61058e565b5b600084013567ffffffffffffffff8111156108b9576108b8610593565b5b6108c586828701610828565b935050602084013567ffffffffffffffff8111156108e6576108e5610593565b5b6108f286828701610828565b92505060406109038682870161086d565b9150509250925092565b7f496e646578206f7574206f662072616e67650000000000000000000000000000600082015250565b6000610943601283610606565b915061094e8261090d565b602082019050919050565b6000602082019050818103600083015261097281610936565b9050919050565b7f4e487b7100000000000000000000000000000000000000000000000000000000600052603260045260246000fd5b7f4e487b7100000000000000000000000000000000000000000000000000000000600052602260045260246000fd5b600060028204905060018216806109ef57607f821691505b602082108103610a0257610a016109a8565b5b50919050565b7f53656e736f722049442063616e6e6f7420626520656d70747900000000000000600082015250565b6000610a3e601983610606565b9150610a4982610a08565b602082019050919050565b60006020820190508181036000830152610a6d81610a31565b9050919050565b7f4461746120747970652063616e6e6f7420626520656d70747900000000000000600082015250565b6000610aaa601983610606565b9150610ab582610a74565b602082019050919050565b60006020820190508181036000830152610ad981610a9d565b9050919050565b60008190508160005260206000209050919050565b60006020601f8301049050919050565b600082821b905092915050565b600060088302610b427fffffffffffffffffffffffffffffffffffffffffffffffffffffffffffffffff82610b05565b610b4c8683610b05565b95508019841693508086168417925050509392505050565b6000819050919050565b6000610b89610b84610b7f84610598565b610b64565b610598565b9050919050565b6000819050919050565b610ba383610b6e565b610bb7610baf82610b90565b848454610b12565b825550505050565b600090565b610bcc610bbf565b610bd7818484610b9a565b505050565b5b81811015610bfb57610bf0600082610bc4565b600181019050610bdd565b5050565b601f821115610c4057610c1181610ae0565b610c1a84610af5565b81016020851015610c29578190505b610c3d610c3585610af5565b830182610bdc565b50505b505050565b600082821c905092915050565b6000610c6360001984600802610c45565b1980831691505092915050565b6000610c7c8383610c52565b9150826002028217905092915050565b610c95826105fb565b67ffffffffffffffff811115610cae57610cad61072b565b5b610cb882546109d7565b610cc3828285610bff565b600060209050601f831160018114610cf65760008415610ce4578287015190505b610cee8582610c70565b865550610d56565b601f198416610d0486610ae0565b60005b82811015610d2c57848901518255600182019150602085019450602081019050610d07565b86831015610d495784890151610d45601f891682610c52565b8355505b6001600288020188555050505b50505050505056fea2646970667358221220e3e214f04845779ffe382d998be150b14c5dd0f6bfe8359575e42dcfd0faa24c64736f6c634300081c0033",
  "linkReferences": {},
  "deployedLinkReferences": {}
}